:1000000009C016C023C0BDC013C012C011C010C0AB
:100010000FC00EC011241FBECFE9CDBF20E0A0E667
:10002000B0E001C01D92A736B207E1F7C7D0A9C161
:10003000E7CF212C83B7836083BF12BE89B782606C
:1000400089BF8BB780628BBFAC9A08951F920F92C5
:100050000FB60F9211242F933F938F939F9322B744
:100060008091650090E0982F8827820F911D209144
:10007000620030916300820F931F9093630080931E
:10008000620012BE1092650080916100811104C06F
:10009000B4996EC081E03EC080916200909163008F
:1000A0009C012B5D31092F35310508F053C080913B
:1000B0006100823059F02CF4813009F059C082E09F
:1000C00029C0833089F0843061F152C095E0292E37
:1000D0001092640010926600109263001092620009
:1000E00083E08093610044C02FEF220D222EB4994B
:1000F0000CC03091640081E090E0022E01C0880FB6
:100100000A94EAF7832B80936400211105C086E0EE
:10011000282E84E0809361001092630010926200A8
:1001200027C02FEF220D222EB4990CC0309166000B
:1001300081E090E0022E01C0880F0A94EAF7832B39
:10014000809366002111E8CF81E0809360001092D7
:100150006100E2CF865591098F35910538F485E825
:1001600090E0909363008093620002C0109261005F
:100170009F918F913F912F910F900FBE0F901F90E5
:1001800018951F920F920FB60F9211248F938091A2
:1001900065008F5F8093650080916500833310F068
:1001A000109261008F910F900FBE0F901F901895C5
:1001B000F894E199FECFD8D0789408953ADF80E0A2
:1001C00090E0CBD0182F81E090E0C7D0D82F87E007
:1001D00087BB8FB583608FBD8AE086BF8FB58F7771
:1001E0008FBD7894C12F02E080916000811149C0D9
:1001F000C23099F028F4C13009F0ADC008BB99C0F5
:10020000C33091F0C43009F0A6C08FB58F778FBD91
:1002100061E080E090E0CCDF1BC08FB580688FBDCF
:1002200088B3866088BB85C08FB58F778FBD18BABD
:1002300063E080E090E0BCDF2FEF8BE49DE1215094
:1002400080409040E1F700C000001092600083C041
:100250008FB580688FBD2FEF8BE49DE121508040EA
:100260009040E1F700C000008FB58F778FBD2FEF72
:100270008BE49DE1215080409040E1F700C00000F8
:10028000E7CF10926000809164008B3091F5D0919F
:100290006600DE7F8FB580688FBD2FEF85EA9EE018
:1002A000215080409040E1F700C000006D2F81E0B8
:1002B00090E07EDF8FB58F778FBD2FEF85EA9EE0D0
:1002C000215080409040E1F700C000008FB5806869
:1002D0008FBD2FEF85EA9EE0215080409040E1F7EE
:1002E00000C000008FB58F778FBD10926000C1E015
:1002F0007BCFC13019F0C23089F076CF8091640095
:10030000873009F071CF2091660030E08D2F90E0AA
:1003100001962817390739F4C2E066CF809164004E
:10032000873009F061CF809166008D135DCFC3E007
:100330005BCF1C1709F458CF6C2F80E090E038DFBA
:100340002FEF85EA9EE0215080409040E1F700C009
:1003500000001C2F49CFC4E047CFE199FECF8EBBF0
:10036000E09A99278DB30895262FE199FECF1CBA04
:100370008EBB2DBB0FB6F894E29AE19A0FBE0196A0
:100380000895F894FFCFFFFFFFFFFFFFFFFFFFFF80
:10039000FFFFFFFFFFFFFFFFFFFFFFFFFFFFFFFF6D
:1003A000FFFFFFFFFFFFFFFFFFFFFFFFFFFFFFFF5D
:1003B000FFFFFFFFFFFFFFFFFFFFFFFFFFFFFFFF4D
:1003C000FFFFFFFFFFFFFFFFFFFFFFFFFFFFFFFF3D
:1003D000FFFFFFFFFFFFFFFFFFFFFFFFFFFFFFFF2D
:1003E000FFFFFFFFFFFFFFFFFFFFFFFFFFFFFFFF1D
:1003F000FFFFFFFFFFFFFFFFFFFFFFFFFFFFFFFF0D
:00000001FF
