S013000053746172744D6F64756C652E737265639D
S113000009C016C023C0DFC013C012C011C010C085
S11300100FC00EC011241FBECFE9CDBF20E0A0E663
S1130020B0E001C01D92A736B207E1F7EAD0D2C111
S1130030E7CF212C83B7836083BF12BE89B7826068
S113004089BF8BB780628BBFAC9A08951F920F92C1
S11300500FB60F9211242F933F934F935F936F9397
S11300607F938F939F93AF93BF9322B78091650043
S113007090E0982F8827820F911D20916000309185
S11300806100820F931F909361008093600012BE01
S11300901092650080916300811104C0B49984C0FA
S11300A081E050C08091600090916100092E000CA5
S11300B0AA0BBB0BAC01BD01475151096109710980
S11300C04F3651056105710508F06CC04796A11DB6
S11300D0B11D80379105A105B10508F453C0809185
S11300E06300823059F02CF4813009F05DC082E065
S11300F029C0833089F0843061F156C095E0292EFF
S113010010926400109266001092610010926000D8
S113011083E08093630048C02FEF220D222EB49910
S11301200CC03091640081E090E0022E01C0880F81
S11301300A94EAF7832B80936400211105C086E0BA
S1130140282E84E080936300109261001092600076
S11301502BC02FEF220D222EB4990CC030916600D3
S113016081E090E0022E01C0880F0A94EAF7832B05
S1130170809366002111E8CF81E0809362001092A1
S11301806300E2CF473351056105710558F4C89700
S1130190A105B10538F087E390E090936100809366
S11301A0600002C010926300BF91AF919F918F9144
S11301B07F916F915F914F913F912F910F900FBE5F
S11301C00F901F9018951F920F920FB60F92112443
S11301D08F93809165008F5F8093650080916500A7
S11301E0833310F0109263008F910F900FBE0F9025
S11301F01F901895F894E199FECF90E0DED07894A2
S1130200089517DF88E090E0D1D0C82F8AE090E00D
S1130210CDD0D82F87E087BB88E088BB78941C2F8B
S11302200FE080916200811155C0C23089F030F432
S1130230C13009F0A7C08AE088BBA7C0C33051F021
S1130240C43009F09FC088E088BB61E0D3DF1BC0E5
S113025008BB9BC088E088BB63E0CCDF2FED84E063
S113026097E0215080409040E1F700C000002FED5E
S113027084E097E0215080409040E1F700C0000006
S11302801092620080C0C09A2FED84E097E0215064
S113029080409040E1F700C000002FED84E097E03B
S11302A0215080409040E1F700C00000C0982FED3D
S11302B084E097E0215080409040E1F700C00000C6
S11302C02FED84E097E0215080409040E1F700C09A
S11302D00000D9CF10926200809164008B3049F500
S11302E0D0916600DE7FC09A2FED84E097E0215024
S11302F080409040E1F700C000006D2F8AE07ADF73
S1130300C0982FED84E097E0215080409040E1F7C1
S113031000C00000C09A2FED84E097E02150804097
S11303209040E1F700C00000C09810926200C1E064
S113033078CFC13019F0C230A9F073CF8091640036
S1130340873059F42091660030E08D2F90E00196BB
S11303502817390759F4C2E064CF809166008130D0
S113036051F4F9CF80916400873029F480916600BC
S11303708D1357CF05C080916600823009F051CFAC
S1130380C3E04FCFD4E0C4E04CCF1C1709F449CFED
S11303906C2F88E02FDF2FED84E097E02150804020
S11303A09040E1F700C000001C2F3BCFE199FECF45
S11303B08EBBE09A99278DB30895262FE199FECF3D
S11303C01CBA8EBB2DBB0FB6F894E29AE19A0FBE0D
S10B03D001960895F894FFCF93
S9030000FC
