:1000000009C016C023C0DFC013C012C011C010C089
:100010000FC00EC011241FBECFE9CDBF20E0A0E667
:10002000B0E001C01D92A736B207E1F7E9D0C7C121
:10003000E7CF212C83B7836083BF12BE89B782606C
:1000400089BF8BB780628BBFAC9A08951F920F92C5
:100050000FB60F9211242F933F934F935F936F939B
:100060007F938F939F93AF93BF9322B78091650047
:1000700090E0982F8827820F911D20916000309189
:100080006100820F931F909361008093600012BE05
:100090001092650080916300811104C0B49984C0FE
:1000A00081E050C08091600090916100092E000CA9
:1000B000AA0BBB0BAC01BD01485151096109710983
:1000C0004F3651056105710508F06CC04896A11DB9
:1000D000B11D80379105A105B10508F453C0809189
:1000E0006300823059F02CF4813009F05DC082E069
:1000F00029C0833089F0843061F156C095E0292E03
:1001000010926400109266001092610010926000DC
:1001100083E08093630048C02FEF220D222EB49914
:100120000CC03091640081E090E0022E01C0880F85
:100130000A94EAF7832B80936400211105C086E0BE
:10014000282E84E08093630010926100109260007A
:100150002BC02FEF220D222EB4990CC030916600D7
:1001600081E090E0022E01C0880F0A94EAF7832B09
:10017000809366002111E8CF81E0809362001092A5
:100180006300E2CF473351056105710558F4C89704
:10019000A105B10538F087E390E09093610080936A
:1001A000600002C010926300BF91AF919F918F9148
:1001B0007F916F915F914F913F912F910F900FBE63
:1001C0000F901F9018951F920F920FB60F92112447
:1001D0008F93809165008F5F8093650080916500AB
:1001E000833310F0109263008F910F900FBE0F9029
:1001F0001F901895F894E199FECFD4D07894089583
:1002000018DF80E090E0C7D0182F81E090E0C3D0E5
:10021000D82F87E087BB8FB583608FBD8AE086BF0C
:100220008FB58F778FBD7894C12F02E080916200E7
:10023000811145C0C23099F028F4C13009F0A9C03D
:1002400008BB95C0C33079F0C43009F0A2C08FB5A7
:100250008F778FBD61E080E090E0CCDF17C08FB575
:1002600080688FBD84C08FB58F778FBD63E080E0DD
:1002700090E0C0DF2FEF85EA9EE021508040904063
:10028000E1F700C000001092620083C08FB5806863
:100290008FBD2FEF85EA9EE0215080409040E1F72E
:1002A00000C000008FB58F778FBD2FEF85EA9EE0ED
:1002B000215080409040E1F700C00000E7CF10924D
:1002C0006200809164008B3091F5D0916600DE7FF2
:1002D0008FB580688FBD2FEF82E597E02150804079
:1002E0009040E1F700C000006D2F81E090E082DFD8
:1002F0008FB58F778FBD2FEF82E597E0215080403B
:100300009040E1F700C000008FB580688FBD2FEFEF
:1003100082E597E0215080409040E1F700C0000066
:100320008FB58F778FBD10926200C1E07FCFC13053
:1003300019F0C23089F07ACF80916400873009F0DB
:1003400075CF2091660030E08D2F90E00196281740
:10035000390739F4C2E06ACF80916400873009F030
:1003600065CF809166008D1361CFC3E05FCF1C170E
:1003700009F45CCF6C2F80E090E03CDF2FEF82E54A
:1003800097E0215080409040E1F700C000001C2F12
:100390004DCFC4E04BCFE199FECF8EBBE09A9927B9
:1003A0008DB30895262FE199FECF1CBA8EBB2DBBCD
:1003B0000FB6F894E29AE19A0FBE01960895F89468
:0203C000FFCF6D
:00000001FF
