S013000053746172744D6F64756C652E737265639D
S113000009C021C078C01FC01EC01DC01CC01BC0B9
S11300101AC019C011241FBECFE9CDBF10E0A0E65D
S1130020B0E0E0E9F2E002C005900D92A236B1071B
S1130030D9F720E0A2E6B0E001C01D92A738B207CC
S1130040E1F7D0D023C1DCCFF894E199FECF11D1F0
S1130050789408951092860010928500809167002C
S11300608A3040F4809162008D3109F03FC0E7E6A8
S1130070F0E033C0809168008130A1F720E030E0E7
S113008082E09DE0E82FF0E0E959FF4F7081743081
S1130090E0F461816430C8F470FD04C0462F4170FF
S11300A050E002C040E050E0FA01092E02C0EE0F19
S11300B0FF1F0A94E2F72E2B3F2B9150623010F46D
S11300C062E001C061E0860F01C08F5F8D31D0F224
S11300D03093860020938500C5CF8181819380E091
S11300E0E438F807D1F78CE18093620080918500B1
S11300F0909186005FC01F920F920FB60F92112449
S11301002F933F934F935F936F937F938F939F931B
S1130110AF93BF93EF93FF9382B720916300309125
S1130120640042B7609163007091640090E0821BA8
S1130130930B50E021E030E04617570710F020E021
S113014030E0820F931F30916200E32FF0E086339A
S113015025E0920710F420E001C022E056B341E00C
S1130160511140E0240F8C5B9140833F964010F482
S113017080E101C08AE1E959FF4F282320833F5FD2
S11301803093620082B790E09093640080936300A0
S113019061DFFF91EF91BF91AF919F918F917F911B
S11301A06F915F914F913F912F910F900FBE0F90E0
S11301B01F90189520916500309166002817390723
S11301C081F480916000813061F486E088BB8FB552
S11301D080688FBD62E080E090E036DF82E080934B
S11301E06000089587E087BB8FB583608FBD8AE088
S11301F086BF8FB58F778FBD80E090E033D080933A
S1130200600082E090E02ED0C82FD0E0DC2FCC2715
S1130210D0936600C093650083E090E023D0C82BA0
S1130220D0936600C093650083B7836083BF12BE1A
S113023089B7826089BFAC9A8BB780628BBF90917B
S11302406000923041F486E088BB8FB580688FBD32
S11302509093600005C082E088BB81E080936000D9
S11302607894FFCFE199FECF8EBBE09A99278DB3A6
S11302700895262FE199FECF1CBA8EBB2DBB0FB675
S1130280F894E29AE19A0FBE01960895F894FFCF8C
S1050290010067
S9030000FC
